:020000040800F2
:1000000000200020F11E0008B91E0008BB1E0008D9
:1000100000000000000000000000000000000000E0
:10002000000000000000000000000000BD1E0008ED
:100030000000000000000000BF1E0008C11E0008F4
:10004000411F000800000000411F0008411F000878
:10005000411F0008411F0008411F0008411F000800
:1000600000000000411F0008411F0008411F000858
:10007000411F0008411F0008411F00080000000048
:10008000411F00080000000000000000411F0008A0
:1000900000000000411F0008411F0008411F000828
:1000A000411F0008411F0008411F0008411F0008B0
:0800B000411F000800000000E0
:1000B80010B5064C2378002B07D1054B002B02D036
:1000C800044800E000BF0123237010BD4C04002049
:1000D800000000009C360008044B10B5002B03D02C
:1000E8000349044800E000BF10BDC04600000000FE
:1000F800500400209C360008002243088B4274D329
:1001080003098B425FD3030A8B4244D3030B8B4210
:1001180028D3030C8B420DD3FF22090212BA030C19
:100128008B4202D31212090265D0030B8B4219D3FA
:1001380000E0090AC30B8B4201D3CB03C01A52411A
:10014800830B8B4201D38B03C01A5241430B8B4262
:1001580001D34B03C01A5241030B8B4201D30B034B
:10016800C01A5241C30A8B4201D3CB02C01A524172
:10017800830A8B4201D38B02C01A5241430A8B4235
:1001880001D34B02C01A5241030A8B4201D30B021E
:10019800C01A5241CDD2C3098B4201D3CB01C01A38
:1001A800524183098B4201D38B01C01A5241430942
:1001B8008B4201D34B01C01A524103098B4201D330
:1001C8000B01C01A5241C3088B4201D3CB00C01A9D
:1001D800524183088B4201D38B00C01A5241430815
:1001E8008B4201D34B00C01A5241411A00D201463A
:1001F800524110467047FFE701B5002000F006F8AD
:1002080002BDC0460029F7D076E770477047C04660
:10021800844608006146FFE71FB500F03DFA002854
:1002280001D40021C8421FBD10B500F0C9F94042F1
:10023800013010BD10B500F02FFA002801DB0020B6
:1002480010BD012010BDC04610B500F025FA0028E9
:1002580001DD002010BD012010BDC04610B500F022
:10026800D5F9002801DC002010BD012010BDC046D2
:1002780010B500F0CBF9002801DA002010BD0120EC
:1002880010BDC046F0B5C64643025B0A4E024500A3
:100298004F00DA00C40F9C46700A904600B52D0E38
:1002A8003F0EC90FB6098C424BD0EA1B002A36DD37
:1002B800002F61D0FF2D00D1ADE08023DB041E4369
:1002C8001B2A00DCD3E001204346181A430100D45E
:1002D8008CE080018709380001F0D8FC0538874098
:1002E800854200DCB6E02D1AB3483840430704D0F5
:1002F8000F230340042B00D00430430100D478E0DE
:100308006A1CFE2D65D08001430A9C46D2B2634622
:10031800D0051843E407204380BCB846F0BD002A46
:1003280035D07A1B002D00D0AFE04346002B00D11A
:10033800A7E0531E012A00D12FE1FF2A69D01A0035
:10034800AAE0E91B002970DD002F37D0FF2D62D00D
:100358008023DB041E431B2900DCB0E0012040445D
:10036800430143D50135FF2D33D00123934A034080
:10037800400810401843B9E7002E00D183E0511E11
:10038800012A00D1D8E0FF2A45D00A0098E7FE27C5
:100398006A1C174200D086E0002D00D0B7E0434623
:1003A800002B00D1F3E00022002EB0D0981B4301AF
:1003B80000D4FAE043460C00F01A97E7002E00D16B
:1003C800C8E04A1E012900D1AEE0FF2923D0110060
:1003D800C1E70023FF229C4699E7FE216A1C1142CF
:1003E80077D0FF2AF5D0150046447008430700D09F
:1003F8007EE7C308FF2D0ED05B025B0A9C46EAB27B
:1004080085E7002E07D08022D203134203D0104282
:1004180001D10C000300002BDBD08020C00318435F
:100428004002430A9C46FF2271E70029D5D07A1B77
:10043800002D60D14346002B24D0531E012A73D0CF
:10044800FF2AE7D01A001B2A00DC85E001203D00C6
:10045800801985E720233A00451B38000135EA401A
:100468005D1BA840431E9841002510433EE720230A
:1004780030009B1A31009840D140431E98410843F0
:1004880022E70C0003001500B4E7FF2FC1D080233A
:100498004046DB04184380461B2A51DD01200C002E
:1004A8003D00301A12E743469F1B7B012BD4002FD7
:1004B80000D010E70023002400229C4627E72023D1
:1004C80032003000CA40591A8840431E98411043F0
:1004D80045E7002D4AD14346002B63D00022002E69
:1004E80000D114E730004044430100D47EE7324B8A
:1004F800013518407AE7FF2F8CD080234146DB0472
:10050800194388469FE743460C00F71AE3E642463C
:10051800002A00D075E7002E00D07AE78023DB039D
:1005280000249C46FF22F2E63000404401254301A6
:1005380000D45BE7022518E743460125981BC5E66A
:10054800202344464046D4409A1A9040431E98417E
:100558002043A4E70D004DE7202341464046D14003
:100568009A1A9040431E9841084370E74246002A71
:1005780000D14FE7002E00D14DE78022D20313426D
:1005880000D148E7104200D045E7030043E7002EBA
:1005980090D00C0084460022B9E643460C00F01ABD
:1005A800013593E684460022B1E6002800D01DE715
:1005B800002300249C46AAE6FFFFFFFBFFFFFF7D08
:1005C80070B5420045024E024C00C30F6D0A01206F
:1005D800120E760A240EC90FFF2A06D0FF2C03D06C
:1005E800A24201D1B54206D070BD002DFCD1FF2C2E
:1005F800FAD1002EF8D18B4206D00120002AF3D17F
:100608002800431E9841EFE70020EDE770B542004F
:1006180045024E024C00C30F6D0A120E760A240ED4
:10062800C80FFF2A1BD0FF2C0ED0002A1BD1002C8C
:1006380001D1002E1CD0002D0CD083421CD00221E9
:10064800581E0840013870BD002E22D1002AF4D16E
:10065800002DF2D10028F6D101204042F3E7002D09
:1006680017D1FF2CF0D0002CE7D1002EE5D1E6E71A
:100678000020002DE7D0E2E7A24205DCEADBB54224
:1006880002D8E7D30020DEE7434258414000013852
:10069800D9E702204042D6E770B5420045024E0233
:1006A8004C00C30F6D0A120E760A240EC80FFF2ADB
:1006B8000BD0FF2C0DD0002A1FD1002C16D1002EF4
:1006C80014D10020002D10D009E0002D0CD1FF2CF2
:1006D80013D1002E08D1002A08D0834212D002215B
:1006E800581E0840013800E0022070BD002DF4D1EA
:1006F8000028FAD101204042F7E7002CEDD1002E66
:10070800EBD1ECE7A24205DCF2DBB54202D8EFD32D
:100718000020EAE74342584140000138E5E7C04677
:10072800F0B54F464646D64644024500C0B5640A71
:100738000F1C2D0EC60F002D00D18DE0FF2D00D10E
:1007480092E00023802099469A46E400C0040443BE
:100758007F3D7802430A98467B001B0EFF0F002B53
:1007680000D170E0FF2B00D186E04246D000802205
:100778007F3BED180023D204024390469C4631008B
:100788004B467940681C0F2B1CD8764A9B00D358DF
:100798009F4639004446E2465346022B0FD0032BAE
:1007A80000D1D7E0012B37D100200024C005204319
:1007B800C9070843E0BCBA46B146A846F0BDFF20C9
:1007C8000024F3E7260C2404220C44462404240CB9
:1007D800434627001B0C574374435A435E43121980
:1007E8003B0C9B189C4203D98022520294466644D3
:1007F8003F041A043F0CD2199401671EBC411B0C1C
:10080800920E9B1914439B011C431B0100D49BE0CF
:10081800012362081C40144302007F32002A64DD71
:10082800630704D00F232340042B00D00434230192
:1008380003D502004C4B80321C40FE2ABFDCA401C9
:10084800640AD0B2B2E74346002B3DD14A46013391
:100858001A4391469C4692E7002C29D104239946D5
:10086800033B00259A4674E7002C1BD108239946C0
:10087800063BFF259A466CE74346FF35002B0BD114
:1008880002234A461A4391469C4678E7534631006C
:10089800022B00D083E792E703234A461A43914686
:1008A8009C466CE70C239946093BFF259A4650E77E
:1008B800200001F0EBF97625431F9C4000236D4290
:1008C80099469A462D1A44E7404601F0DFF9424618
:1008D800431F9A4000232D1A90469C46763D4EE7CA
:1008E80080240021FF20E40360E701239B1A1B2BCF
:1008F80000DD59E722009E30DA4084401300621E72
:1009080094411C43630704D00F232340042B00D0D9
:10091800043463011AD50120002447E78020C0036E
:10092800044209D04346034206D1444604436402C4
:100938003900FF20640A39E78020C00304436402B9
:100948003100FF20640A31E7280065E7A401002090
:10095800640A2BE78020C00304436402FF20640A72
:1009680024E7C04614370008FFFFFFF7F8B5CE4666
:10097800474643025B0A4E02DA009446720A9146E1
:1009880045004A0080B52D0E1F00C40F120EC90F76
:10099800B609FF2A5BD0012041408C4239D0A81A01
:1009A80000285ADD002A6AD0FF2D00D1D9E0802224
:1009B800D20416431B2800DCE9E001206346181A1C
:1009C800430100D4B4E080018709380001F05EF9E2
:1009D80005388740854200DCCCE02D1AB548384000
:1009E800430704D00F230340042B00D004304301F5
:1009F80000D4A0E06A1CFE2D00D18DE08001470ADA
:100A0800D2B2D0053843E4072043C0BCB946B0464B
:100A1800F8BDA81A8046002845DD002A70D0FF2DB1
:100A280000D19EE08023DB041E4343461B2B00DCE1
:100A3800D2E00120604443017AD50135FF2D6BD007
:100A480001239D4A0340400810401843C8E7002E80
:100A580020D08C4223D02800FF38002839D0571BDB
:100A6800002D00D09DE06346002B00D1DBE07B1E0B
:100A7800012F00D10DE1FF2F71D01F0098E0002E4B
:100A880000D1A7E0421E012800D1E6E0FF2868D087
:100A980010008FE701204140A14200D07FE7FF20EE
:100AA80040428046A8444046002838D0511B002DBB
:100AB80000D1AEE0FF2A00D1DFE080236046DB04EE
:100AC800184384461B2900DCD9E001201500801951
:100AD800B1E7FE206A1C104271D1002D00D0A6E0BB
:100AE8006346002B00D1D9E00022002E00D188E710
:100AF800981B430100D4E1E063460C00F01A6FE74D
:100B0800002E00D1B7E00200013A012800D19CE094
:100B1800FF2826D0904688E7FF22002771E7FE20AD
:100B28006A1C104264D0FF2AF6D01500664470088B
:100B3800430700D056E7C308FF2D12D05B025F0AB7
:100B4800EAB25EE76246002A00D196E0002E08D09D
:100B58008022D203134204D04846104201D10C002F
:100B68004B46002BD8D08027FF031F437F02FF226C
:100B78007F0A46E720233A00451B38000135EA4042
:100B88005D1BA840431E98410025104328E72023F9
:100B98001B1A32009E40C2403000431E9841104349
:100BA8000CE7FF2ADBD080236046DB041843844629
:100BB8001B2F56DD01200C001500301A00E7634694
:100BC8009F1B7B013DD4002F00D0FEE600240022AD
:100BD800002716E70500AFE7320043464146DA40F2
:100BE80020235B1A9E403000431E9841104321E7A2
:100BF800002DA7D16346002B59D00022002E00D12A
:100C0800FFE630006044430192D52A4B0135184075
:100C18008EE76346002B47D04B1E012915D0FF29CC
:100C28002BD019004EE70C004B463D0084E7624686
:100C3800002A8BD1002E92D180270024FF22FF03A7
:100C4800DFE663460C00F71ABFE630006044012572
:100C5800430100D46CE70225F2E663460125981BA0
:100C6800AEE6202364466046FC40DF1BB840431EC6
:100C7800984120439FE705005EE74B4671E7202334
:100C880065466046CD40591A8840431E984128431E
:100C98001CE763460C000125F01A91E6002E95D05A
:100CA8000C004F460022ACE64B460D0044E74F4689
:100CB8000022A6E6FFFFFFFBFFFFFF7D002800D014
:100CC80036E7002400279CE641024200C30F490A88
:100CD8000020120E7E2A03DD9D2A02DD094A98189B
:100CE8007047802000040143952A07DC9620821A69
:100CF800D1404842002BF3D10800F1E7963A9140E1
:100D0800F7E7C046FFFFFF7F70B5051E0ED000F065
:100D1800BDFF9E2304001B1A962B0CDC082801DD5E
:100D2800083CA5406D026D0AD8B201E000200025FC
:100D3800C005284370BD992B09DD020029001B322C
:100D480091404A1E91410522121AD5400D43052CA7
:100D580012DC29000C4E31406A0709D00F202840C8
:100D6800042805D004314A0102D59F2331401B1BBA
:100D780089014D0AD8B2DBE7621F95402900024E6F
:100D880031406A07F4D0E9E7FFFFFFFB03685A0028
:100D980004D5802212061343C01870475B005B0815
:100DA800FAE7C046F8B557464546DE464E469046F1
:100DB800E0B50700002924D04B1E9A469946002327
:100DC8009B465B464B44DC0FE4186410E5007E1933
:100DD8003000FFF7DBFFA2450CD040450CD82800B7
:100DE80008303818FFF7D2FF013840450AD2631C93
:100DF8009B46E6E7404505D9A34502D0631E9946C0
:100E0800DFE700263000F0BCBB46B246A946A04644
:100E1800F8BDC0460300012805D0022807D00020ED
:100E2800002B02D070470348FCE70348FAE7034861
:100E3800F8E7C0464515000839150008511500089F
:100E480030B5234B050083B08C1E002B26D0200024
:100E580001A900E000BF00281CD001992200FFF77B
:100E6800A1FF041E16D0FFF791FF6368A864012B49
:100E78002AD0201D002B23DBFFF788FF0023E8641E
:100E88002B650368002B0FDBFFF780FF286100202C
:100E980003B030BD002309202B61F9E70D480E4946
:100EA800091AC9100191D9E71801000FFFF7B2FF1D
:100EB8002861431E98410823404298430930E7E7D8
:100EC8000123E8642B65DCE7002305202B61DFE7BD
:100ED800000000003038000850390008036810B5D9
:100EE8000400DA0705D49B070AD5483000F080FCD7
:100EF80023685A070AD51A070FD5DB0615D510BD82
:100F0800483000F071FC23685A07F4D42000D03030
:100F180000F072FC23681A07EFD420005130FF302C
:100F280000F06EFC2368DB06E9D42000D130FF30E6
:100F380000F06AFCE3E7C046092070470300006838
:100F4800002800D0C01870477047C04670B504002C
:100F58000D002000296CFFF773FF002811D12B6CBE
:100F68002A00636121000120236998470828F0D0EE
:100F7800072806D10020296CFFF7E6FF281D00F09E
:100F88001DFC02F0E7F9C046F0B5CE46474680B5ED
:100F9800C368304C9846A5448369040016000431A0
:100FA800402205A8994602F005FA0023049325E09B
:100FB800F022149B5200636104A97CA8039302F0F9
:100FC800F9F92100280023697CAA98478A9B050023
:100FD800039315934B46019304AB0093220023001F
:100FE80031000120C047002822D1F0227CA95200FC
:100FF80004A802F0DFF90026082D22D1149B200056
:1010080019000393FFF71CFF09360700F5B2002803
:10101800CED0129B1021039315934B46019304AB3A
:1010280000932200230001202943C047002800D054
:1010380009273800F5239B009D44C0BCB946B0463B
:10104800F0BD072DF4D130001499FFF77DFF05A8F6
:1010580000F0B4FB2CFCFFFF406C704770B5CB6B05
:10106800FAB00B6405000E004022043103A802F018
:10107800A1F901235B42029306E029002B6902AA29
:101088009847040008280AD1129B280019000193E8
:10109800FFF7D6FE0028F0D009207AB070BD02A86C
:1010A800FFF71CFF062CF7D131002800FFF74EFF91
:1010B80010B58261DA6BC1601A6419000022FFF76B
:1010C80063FF10BD436970B50B64C36804000D006D
:1010D800002B13D10A002369010002209847072832
:1010E80005D008280FD129002000FFF72FFF002086
:1010F800296CFFF729FF281D00F060FB0122FFF78C
:1011080043FF02F027F902F025F9C046C36810B57D
:10111800002B05D0CB6B00220B64FFF735FF10BD09
:10112800FFF79CFFFBE7C0467047C0468368010095
:1011380010B5002B01D00120984710BD012915D00A
:101148000AD8002B10D10F2A0ED8920082185268A4
:10115800009B00201A6006E001200339C9B28842CA
:1011680080414042013070470220FCE70120FAE745
:1011780000B585B003AB0A00009300210023FFF7F8
:10118800DDFF039805B000BD012915D00AD8002B52
:1011980010D10F2A0ED8009B92001B68821853604A
:1011A800002006E001200339C9B28842804140424C
:1011B800013070470220FCE70120FAE700B585B04E
:1011C80003AB039200930A0000230021FFF7DCFF22
:1011D80005B000BD70B51A4CD36BA5441364050067
:1011E8000C0019A8111D402202F0E4F801235B420B
:1011F800189314E00C2118A802AAFFF7DFFF2100BA
:1012080018A8A847002812D1069B18AA02A90830D6
:1012180001939847060005280AD0092807D0289B7B
:1012280002A819000193FFF70BFE0028E2D0092657
:1012380018A8FFF753FE300090239B009D4470BD13
:10124800C0FDFFFFF0B557469246032245464E467D
:10125800DE4699461300E0B58846CD6C494689B00C
:101268000340009308CD0695002900D180E01A0CB0
:101278001B040593022304A90B73FD3313409B0041
:101288004A73ED18009B022B01D143469D6B4346E0
:101298001B6DDB070FD5504605A900F05BFB002846
:1012A80001D1082000E0092009B0F0BCBB46B246D5
:1012B800A946A046F0BD2F68002FECD008230340B4
:1012C800029300230193013354469B464646BA468F
:1012D8004B46022B49D02B886F889A4604355A46CC
:1012E8003B009343B26C0F21904620009844FFF7CF
:1012F8003FFF0023804506D853465A46934343444C
:1013080098429B415B4202227F0017405946524651
:101318000A401743012F30D0022F4CD0002FC2D1E2
:10132800009A002A02D0002B00D09BE004352B68DD
:101338009A46002BCCD1200005A9A24600F00AFB52
:101348000028B0D1019B002BABD00F215046FFF7EE
:101358000FFF0E2102005046FFF730FF50460F21C5
:10136800724AFFF72BFF07209EE76F680835B6E73C
:101378001B02059304AB9A8184E7009A002A49D19D
:10138800002B16D02B68DF0F6B689A1C00D18AE7F8
:10139800320058320492013300D1B6E0281DFFF71D
:1013A800CDFD3A00010004AB300000E000BF00288A
:1013B8006CD10835BBE72A68009957007F080029D7
:1013C8000DD1002B04D0029B002B72D0002F3CD0F3
:1013D800002A00DA04350137BF00ED19A7E7336AA0
:1013E8000D2120009846FFF7C3FE804501D02A68EA
:1013F800EEE7B36A9D42FAD10023F3620433336304
:101408002B1DB76273632B68002B00DA87E001237A
:101418000193E0E70D212000376AFFF7A9FE874214
:10142800C7D1B36A9D42C4D1B046A2462800FFF78F
:10143800ADFC0F2102005046FFF7C0FE5046424661
:101448000021FFF7BBFE07202EE7B046A2460D217C
:101458005046FFF78DFE4346049A18625A620620EA
:101468009D6221E72800FFF791FC0435A246B56389
:101478000400300000E000BF002800D113E7504608
:1014880022000F21FFF79AFE07200DE7A2460D2143
:1014980004005046FFF76CFEB04633003062022C61
:1014A80039D1049A2C33F2627362434606209D6256
:1014B800FAE62B1D9A460023984658339C4621008D
:1014C8004A46B4445446A9468A463D0003924746D4
:1014D800E0460EE0434620000493FFF72FFD00226C
:1014E800010004AB300000E000BF013704340028DD
:1014F80004D1AF42EED14D46B046A8E72F004D4685
:10150800039B544699462A6862E70D212000FFF79D
:101518002FFEB04630624346049A5A62C5E7781CEB
:101528008000B046A246281881E7C04600000000A7
:1015380010B50023FFF786FE10BDC04610B5012385
:10154800FFF780FE10BDC04610B50223FFF77AFEF4
:1015580010BDC046F0B5CE46474680B5050014001C
:101568001E00C3B0032944D020D8002949D001293E
:1015780041D1130C14049846230C9946012E00D12E
:101588007AE0052E37D144464C44202C33D84346C4
:101598000F2B00D8B5E04C46002C00D0C2E04A46DC
:1015A800A96B20AF002A22D000247FE0042922D191
:1015B800002B20D1102A1ED8102203681A4200D00E
:1015C800C7E020AF380000F021F9012639000023D8
:1015D800AA6B30009840044201D001CA0860013368
:1015E8000431042BF5D13800AA6300F00DF900206E
:1015F80002E0032B1CD0022043B0C0BCB946B04661
:10160800F0BD002BF7D1002301271604826B360C9E
:10161800011D38009840064201D001CA0860013314
:101628000431102BF5D10020A304E5D4AA63E3E725
:101638001404160C240C3319102BDCD80822036868
:101648001A4200D08CE020AF380000F0DBF8F6003A
:10165800AB6B002C0AD0F61AE400321F1C19BA181A
:101668001900096804339950A342F9D13800AB63D3
:1016780000F0C6F80020BFE743464B44102BBAD809
:1016880043460F2BB7D82B681E4206D003222800EA
:1016980093432B60483000F0A9F820AF380000F0E1
:1016A800A5F84A460024A96B002A61D04346DB000E
:1016B800FF180023D200C858F85004339A42FAD1D0
:1016C8008918002C0FD06F464046102800D21020F1
:1016D80000231038C0003818E200CF58C750043330
:1016E8009342FAD1C918012E41D04346A9630F2B62
:1016F80045D9002C00D17AE7684600F07DF8002033
:101708007AE7102C46D9103C01222B681A4207D0E0
:1017180093430222280013432B60483000F06AF8F4
:10172800002C39D004222B681A422CD143460F2BA7
:1017380003D820AF380000F05DF86F46380000F09D
:101748005DF810224346A96BD21A002ABCDD20AFEF
:10175800ACE793430360D130FF3000F057F830E72F
:10176800934303605130FF3000F04CF86BE720AF33
:1017780004313800A96300F037F800203CE720A8BE
:1017880000F036F8B5E7280093432B60D03000F01E
:1017980035F8CBE70024B7E743460F2B00D9FEE620
:1017A80020AF380000F026F84A46A96B002A00D07E
:1017B800FAE6380000F01CF800201DE7010034317B
:1017C80038C9043B9C461D60A646010020313CC92F
:1017D80090469946A246AB4601000831FCC94168CB
:1017E8000068E54600BDC0467047C0467047C04621
:1017F8007047C0467047C0467047C0467047C046ED
:101808007047C0467047C0467047C0467047C046DC
:1018180001B401A801B585B0FFB408A841464A46FD
:1018280053465C4665463EC001A83EC80F980090E6
:1018380000230CB401A9FFF711FC109B12B0184744
:1018480001B401A801B585B0FFB408A841464A46CD
:1018580053465C4665463EC001A83EC80F980090B6
:1018680000230CB401A9FFF72DFC109B12B01847F8
:1018780001B401A801B585B0FFB408A841464A469D
:1018880053465C4665463EC001A83EC80F98009086
:1018980000230CB401A9FFF739FC109B12B01847BC
:1018A80001B401A801B585B0FFB408A841464A466D
:1018B80053465C4665463EC001A83EC80F98009056
:1018C80000230CB401ABFFF7F3FB109B12B01847D1
:1018D80001B401A801B585B0FFB408A841464A463D
:1018E80053465C4665463EC001A83EC80F98009026
:1018F80000230CB401AAFFF76DFC109B12B0184727
:10190800027A0300002A0BD1427A002A0FD0013A4A
:1019180042724268111D416003211268017202E09F
:10192800013A02720268100E12021A607047B02063
:10193800FCE7C04600B585B003AB00930C2200233A
:101948000021FFF7FBFB039805B000BD10B5FFF7BA
:10195800F1FF10BDF0B54E4645465746DE4600231A
:10196800E0B587B003930F339846083B9946802328
:101978001B0305000E009A463000FFF7C1FF040064
:10198800B02800D1C1E0030629D50300424693439D
:10199800DBB2802B53D0902B3DD0A02B6BD0B02B3B
:1019A80000D17EE0C02B00D195E003004A46934366
:1019B800DBB2D02B0AD15346024001321A43052329
:1019C80001212800FFF7C6FD0028D5D009242000F2
:1019D80007B0F0BCBB46B246A946A046F0BDFF23FF
:1019E800820013401F1D05AB9B4600930D22002368
:1019F80000212800FFF7A2FB630639D4059B9C460B
:101A080067445B460597009300230D2200212800B8
:101A1800FFF7BAFBB0E7833B03400D2BD6D005AFE9
:101A280002400023002128000097FFF787FB0023CE
:101A38000D22002128000097FFF7A6FB9CE704026F
:101A48003000FFF75DFF802720433F02B842BDD03A
:101A580004010005020C002300212800FFF77AFD8D
:101A68000028B3D13C4200D186E70123039383E7E2
:101A7800059BDF1BC5E7FF234A461B01190082436C
:101A880011410A001A40030702D58023DB011A43DB
:101A9800002300212800FFF75DFD002800D16BE737
:101AA80094E7B12845D0B22800D19FE0B32855D09B
:101AB800FC230340B42B00D188E74A465346024032
:101AC80001321A43012101232800FFF743FD0028B2
:101AD80000D151E77AE7C6284BD0C7285DD003006C
:101AE8004A469343DBB2C02B6CD0C82871D0C928B2
:101AF80000D06BE73000FFF703FFF02302031B035E
:101B0800134042460240013258E7039B0024002B51
:101B180000D05CE705AE0E22002128000096FFF7F2
:101B28000DFB00230F22002128000096FFF72CFB55
:101B38004DE73000FFF7E4FE021E00D146E7030040
:101B480041468B43DBB2002B00D03FE70021280041
:101B5800FFF700FD002800D10EE737E73000FFF758
:101B6800CFFEF02302031B0313404246024001321A
:101B7800A7E73000FFF7C4FEF02302031B0313405E
:101B88004246024001321A43032303212800FFF78B
:101B9800E1FC002800D1EFE618E73000FFF7B0FEBF
:101BA800021E00D112E7030041468B43DBB2002B33
:101BB80000D00BE704212800FFF7CCFC002800D157
:101BC800DAE603E74346A0221C400134120322430D
:101BD800DAE73000FFF794FE434602009A43D2B298
:101BE80010321840120301300243E8E605AB0093B7
:101BF8009B460D22002300212800FFF79FFA3000A2
:101C0800FFF77EFE03061AD57F27B03C059B3840B8
:101C1800A0409C466044059030000734FFF770FEF2
:101C28000306F3D481217F2389008C460340A34017
:101C3800059A62449B1805935B460093E4E60224E8
:101C4800F0E7C046030000B5DA6C85B053680800B9
:101C58000832190201910292694603221B0E0A7387
:101C68004B7301A9FFF776FE05B000BD10B5FFF76D
:101C78006DFE806C10BDC04610B5FFF767FEC26CE4
:101C8800D07902308000101810BDC0461C210123F5
:101C98001B04984201D3000C10391B0A984201D347
:101CA800000A08391B09984201D30009043902A225
:101CB800105C40187047C04604030202010101018C
:101CC800000000000000000070B588B01422002158
:101CD80003A801F0C1FB164B5A6B012422435A6337
:101CE8005A6B22400192019A596B0222114359639F
:101CF8005B6B1A400292029BA026F6050022702117
:101D0800300000F075FA70230393049400250595BC
:101D1800069503A9300000F0AFF903230393049557
:101D2800059403A9034800F0A7F908B070BDC046A0
:101D3800001002400004005072B6FEE700B593B0F0
:101D48003422002105A801F087FB1022002101A8F8
:101D580001F082FB8020800000F050FA02230593F6
:101D68008022520008920022099240320A920C9373
:101D78000D930E330E9309330F9380239B02109318
:101D8800C023DB05119305A800F062FA00280ED1E4
:101D980007230193053B0293002303930493022135
:101DA80001A800F003FD002803D113B000BDFFF720
:101DB800C3FFFFF7C1FF10B500F0ECF8FFF7BEFF57
:101DC800FFF782FF00F006F801F07EFA01F08EFAC4
:101DD800FCE7000010B51148114B036082235B003B
:101DE800436000238360E022D200C26003610122C5
:101DF8004261802292008261E93AFF3AC26103623D
:101E080043628362113AC2620363436300F0C6FE11
:101E1800002800D110BDFFF78FFFFBE76804002002
:101E28000030014010B588B004001422002103A836
:101E380001F012FB2268104B9A4201D008B010BD85
:101E48000E4B196C80204001014319641A6C024042
:101E58000192019A596B0122114359635B6B1A4035
:101E68000292029B82230393803B0493A02003A940
:101E7800C00500F001F9E1E7003001400010024020
:101E880082B00A4B196C012211431964196C0A407B
:101E98000092009ADA6B802149050A43DA63DB6B0A
:101EA8000B400193019B02B07047C04600100240EE
:101EB800FEE7FEE77047704710B500F07FF801F0C5
:101EC80027FA10BD0120704710B501F04BFA162310
:101ED80003600120404210BD10B501214942FFF7BF
:101EE800F3FFFEE7704700000D488546FFF7FAFF4D
:101EF8000C480D490D4A002302E0D458C45004335D
:101F0800C4188C42F9D30A4A0A4C002301E0136032
:101F18000432A242FBD301F02BFAFFF74CFFFEE795
:101F280000200020000000204C0400206039000838
:101F38004C040020500E0020FEE7000010B50400FD
:101F4800114B1978002901D1012010BDFA20800019
:101F5800FEF7D2F801000D4B1868FEF7CDF800F037
:101F68006FF800280DD1032C01D90120EDE70130CD
:101F780000222100404200F033F8054B1C6000208D
:101F8800E3E70120E1E7C04604000020000000204C
:101F98000800002010B5084A116880235B000B4335
:101FA80013600320FFF7CAFF041E02D0012420009B
:101FB80010BDFFF765FFFAE700200240034B1B78CE
:101FC800034A11685B1813607047C046040000207C
:101FD800CC040020014B18687047C046CC04002090
:101FE80070B5002811DB8308134EC0339B009D5940
:101FF80003242040C000FF2214008440A543890127
:102008000A4082402A439A5170BD0F230340083B7F
:102018009B0806339B00094A944663445C68032284
:102028001040C000FC3215008540AC4389010A40CD
:10203800824022435A60E7E700E100E000ED00E05B
:10204800013880235B0498420FD2094A506009483E
:10205800036A1B021B0AC02109060B430362002303
:10206800936007331360002070470120FCE7C046E7
:1020780010E000E000ED00E0F0B500235AE08468CD
:102088005F000326BE40B4432600CC68BC403443FE
:102098008460446894434A681609012232409A4091
:1020A8002243426056E0DC080834A4002658053272
:1020B8001A4092000F279740BE430F6997403A0095
:1020C800324322505AE0032600E00026A64034009E
:1020D8003C43434E1832920094513468EA43260038
:1020E800AE434F68FF0201D52C4326003C4C2660C6
:1020F8006468260016404F68BF0201D52C432600AD
:10210800374C66608426A459260016404F68BF03E2
:1021180001D52C432600324C8427E6518026A45949
:1021280022404E68F60301D52A0022432C4D802414
:102138002A5101330C682200DA404FD001229A401C
:10214800250015401442F4D003244E683440013C65
:10215800012C94D903224C682240032A09D0C26872
:102168005E000324B440A24314008A68B2402243AC
:10217800C26003224C682240022A94D004685E00A0
:1021880003221700B740BC434F683A40B24022438D
:102198000260C02292024C681442CAD09A08140005
:1021A8001834A4000E4EA75903241C40E4000F263F
:1021B800A640B743A026F605B04286D0094EB042E5
:1021C80008D0094EB04207D0084EB04200D17AE795
:1021D80005267BE7012679E7022677E7F0BDC046AA
:1021E800001802400004005000080050000C005085
:1021F800002A01D0816170478162FCE710B5104A5E
:10220800136810490B400343136080239B009842D6
:1022180001D0002010BD0C4B1B685800C0184000AE
:102228000A49FDF769FF0130054B5B695B0503D57A
:10223800002803D00138F7E70020EBE70320E9E79F
:1022480000700040FFF9FFFF0000002040420F002F
:1022580070B582B0041E00D129E20368DB0739D5C6
:10226800C14A916838230B40D16803220A40102BD9
:1022780026D0082B26D063688022520293427FD052
:10228800A022D202934200D181E0B74B1A68B74925
:102298000A401A601A68B6490A401A606368002B37
:1022A80000D180E0FFF796FE0500AF4B1B689B034B
:1022B80010D4FFF78FFE401B6428F6D90320F7E1FE
:1022C800032AD6D1A84B1B689B0303D56368002B50
:1022D80000D1EFE123689B0731D5A34A93683821E1
:1022E8000B40D16803220A40102B6AD0002B6BD117
:1022F8009D4A1268520503D5E268002A00D1DBE145
:10230800994842689B490A40616909020A43426048
:10231800002B0DD1036898490B4021690B430360DA
:102328000368DB0A07221A40944BD340944A13608F
:10233800944B1868FFF702FE002800D0BEE123681E
:102348001B0700D481E0884B9A6838231340182B68
:1023580073D0A369002B00D1B4E0834A136E012126
:102368000B431366FFF736FE05007F4B1B6E9B077A
:102378006BD4FFF72FFE401B0228F6D9032097E104
:10238800794A116880235B020B43136086E7764B1A
:1023980019688022D2020A431A6019688022520200
:1023A8000A431A607AE7FFF715FE05006E4B1B68B3
:1023B8009B038FD5FFF70EFE401B6428F6D9032038
:1023C80076E1022A92D193E7E368002B22D0664A8D
:1023D800136869490B4021690B4313601168802316
:1023E8005B000B431360FFF7F5FD05005E4B1B68B0
:1023F8005B0506D4FFF7EEFD401B0228F6D9032043
:1024080056E159494B685B4A13406269120213430B
:102418004B6094E7544A13685B490B401360FFF71D
:10242800D9FD0500504B1B685B0588D5FFF7D2FD29
:10243800401B0228F6D903203AE14B4B1B6E9B0741
:1024480003D5A369002B00D13AE123685B0700D4C8
:10245800A2E0454B9A6838231340202B45D0424BC5
:10246800DB6BDB004AD4404AD16B80204005014336
:10247800D163D36B03400193019B0125434B1B6838
:10248800DB053DD5A368012B4ED0052B52D0364B2A
:10249800DA6D01218A43DA65DA6D03318A43DA6538
:1024A800A368002B50D0FFF795FD06002E4BDB6D7F
:1024B8009B076FD4FFF78EFD801B354B9842F5D9EB
:1024C8000320F5E0284A136E01218B431366FFF7BA
:1024D80081FD0500244B1B6E9B07B6D5FFF77AFDDF
:1024E800401B0228F6D90320E2E01F4BDB6D9B0757
:1024F80052D5A368002B4FD10120D9E00025BDE7B4
:10250800224A116880235B000B431360FFF762FDCA
:1025180006001E4B1B68DB05B4D4FFF75BFD801B70
:102528000228F6D90320C3E00F4AD36D01210B43DB
:10253800D365B5E70C4BDA6D04210A43DA65DA6D29
:1025480003390A43DA65ABE7FFF744FD0600064B9B
:10255800DB6D9B071ED5FFF73DFD801B0C4B98429A
:10256800F5D90320A4E0C04600100240FFFFFEFF9B
:10257800FFFFFBFFFF80FFFFFFC7FFFF0024F40002
:102588000000002008000020FFFEFFFF0070004050
:1025980088130000012D1ED0E369002B00D191E0C3
:1025A8004F4A916838220A40102A5ED0022B18D070
:1025B8004B4A13684B490B401360FFF70BFD0400AF
:1025C800474B1B689B0149D5FFF704FD001B0228F8
:1025D800F6D903206CE0424AD36B43490B40D363DE
:1025E800DAE73F4A13683F490B401360FFF7F2FCF4
:1025F80005003B4B1B689B0106D5FFF7EBFC401B16
:102608000228F6D9032053E0354AD36837491940E0
:10261800236A606A0343A06A00020343E06A034333
:10262800206B03430B43D360116880235B040B4387
:102638001360D16880235B050B43D360FFF7CAFCA6
:102648000400274B1B689B0106D4FFF7C3FC001B43
:102658000228F6D903202BE0002029E0204AD3687D
:1026680023490B40D360002022E0012B2CD01C4BC7
:10267800DA6803231340216A8B4227D17023134061
:10268800616A8B4224D1FE21C9011140A36A1B0251
:1026980099421FD1F8239B031340E16A8B421BD157
:1026A800520F5207236B9A4218D1002000E00120F4
:1026B80002B070BD0120FBE70120F9E70120F7E730
:1026C8000120F5E70020F3E70120F1E70120EFE71B
:1026D8000120EDE70120EBE70120E9E70120E7E72A
:1026E80000100240FFFFFFFEFFFFFFEF8C80C11FBD
:1026F800FCFFFEEF10B52A4B9B6838221A4207D11F
:10270800274B1A68D20A072313402648D84010BD21
:10271800234B9A6838231340082B3BD0204B9A68E8
:1027280038231340102B0DD01D4B9A6838231340C3
:10273800202B31D01A4B9A6838231340182B26D0F7
:102748000020E4E7164AD1680D3B0B40D268120915
:10275800072111400131032B0FD01248FDF7CCFCA3
:102768000F4BDA68120A7F23134058430C4BD96881
:10277800490F0131FDF7C0FCC9E70B48FDF7BCFC68
:10278800074BDA68120A7F2313405843EEE7FA2012
:10279800C001BCE70448BAE780200002B7E7C0469A
:1027A800001002400024F40000127A0070B5040002
:1027B8000D00002800D1AAE0574B1A6807231340E0
:1027C8008B4221D323689A070ED55B0705D5534A58
:1027D8009168E023DB010B439360504A93685049AA
:1027E8000B40A1680B4393602368DB0754D56368EB
:1027F800012B20D0022B3BD0002B3FD1474A126837
:1028080052051CD401206AE0434A136807218B4310
:102818002B431360FFF7DEFB06003F4B1A680723C4
:102828001340AB42CED0FFF7D5FB801B3D4A904208
:10283800F3D9032053E0394A1268920369D537491E
:102848008A680720824313438B60FFF7C3FB0600A7
:10285800324B9B6838221A406368DB009A421BD0CF
:10286800FFF7B8FB801B2F4B9842F1D9032036E0C5
:102878002A4A12689201E2D4012030E0032B05D0E5
:10288800264AD26D9207DAD4012028E0234A126E34
:102898009207D4D4012022E01F4B1A680723134063
:1028A800AB421DD823685B0706D51C4A93681E49AE
:1028B8000B40E1680B439360FFF71CFF174B9A68C6
:1028C800120A0F2313409B00184A9A581F231340DB
:1028D800D840174B1860174B1868FFF72FFB70BDCF
:1028E8000D4A136807218B432B431360FFF772FBD4
:1028F8000600094B1A6807231340AB42D2D0FFF7F2
:1029080069FB801B074B9842F3D90320E7E70120B6
:10291800E5E70120E3E7C04600200240001002403E
:10292800FFF0FFFF88130000FF8FFFFF54370008F8
:102938000000002008000020F0B5D6464F46464665
:10294800C0B582B006000D0090461F00FFF742FB9D
:102958000A9B181A8146B944FFF73CFB82462E4B66
:102968001B685B011B0D4A465343019333689C68FF
:102978002C40641B63425C41444545D07B1CF5D028
:10298800FFF728FB5346C01A48450BD24B46002B8D
:1029980008D0019A002A00D04A46019B013B0193C6
:1029A8009146E3E732685368E0218B435360822302
:1029B8005B0072689A420CD080239B01B26A9A42EB
:1029C80016D05D230122F254013B0022F254032069
:1029D8001BE0B36880221202934203D08022D20007
:1029E8009342E9D13268136840218B431360E3E7CF
:1029F8003268136809490B401360326811688023F4
:102A08009B010B431360DCE7002002B0E0BCBA4630
:102A1800B146A846F0BDC04600000020FFDFFFFF1A
:102A2800F0B5DE4657464E464546E0B583B007004A
:102A38000D00160098466B460022DA70FFF7CAFAB6
:102A48000C9B181A40448146FFF7C4FA82463B683B
:102A58009B46364B1A6893009A18D3009B1A1B0D95
:102A68004A465343019302E04346013311D13B6880
:102A78009C682C40B44250D0C023DB009D42F3D167
:102A8800002EF1D15B461B7BDBB26A46D370D3784C
:102A9800EAE7FFF79FFA5346C01A48450BD24B4660
:102AA800002B08D0019A002A00D04A46019B013B1E
:102AB80001939146DBE73A685368E0218B43536002
:102AC80082235B007A689A420CD080239B01BA6A01
:102AD8009A4216D05D230122FA54013B0022FA548F
:102AE80003201BE0BB6880221202934203D080229D
:102AF800D2009342E9D13A68136840218B431360AE
:102B0800E3E73A6813680A490B4013603A681168AA
:102B180080239B010B431360DCE7002003B0F0BC6B
:102B2800BB46B246A946A046F0BDC04600000020FC
:102B3800FFDFFFFF70B582B004000D001600C02152
:102B480000922B0000224901FFF76AFF002818D1E4
:102B580000962B00002280212000FFF7EDFE0028C0
:102B680016D1C02100962B000022C9002000FFF7D3
:102B780057FF00280AD0236E202213432366032020
:102B880004E0236E202213432366032002B070BDA5
:102B9800236E2022134323660320F7E770B5041E33
:102BA80000D178E0436A002B07D10533FF33426830
:102BB8009A4205D00023C36102E000230361436108
:102BC8000023A3625D33E35C002B5AD05D2302220D
:102BD800E2542268136840218B431360E368E022C3
:102BE800D200934254D90022F02109018B4205D02A
:102BF800E021C9008B4201D00023A36282235B003D
:102C080061680B4084210902A06801400B4302213E
:102C1800206901400B43012160690840034380207B
:102C28008000A569284003433820E569284003430C
:102C38008020256A2840034380208001A56A284017
:102C4800034320680360608B042303401020656AF7
:102C5800284003430820656B28400343F020000107
:102C6800E568284003432068134343602268D3691A
:102C78000A480340D361002323665D33E1540020F2
:102C880070BD5C330022E2542000FFF7CBF89DE7CB
:102C980080225201A8E70120F2E7C046FFF7FFFFB4
:102CA800F0B5CE4600B584B00400019191461D00F0
:102CB8005C23C35C012B00D1CBE05C230122C2540E
:102CC800FFF788F906005D23E35CDFB2012B00D033
:102CD800B6E00199002900D1B3E04B46002B00D1A2
:102CE800AFE05D230322E25400232366A1634A4632
:102CF800A287E28723644422A3520232A3522365A7
:102D0800E36480231B02A2689A421ED023681A68D3
:102D1800520603D41A6840210A431A60E023DB00F4
:102D2800E2689A423ED96368002B02D04B46012BD9
:102D380020D12368A26B1288DA60A36B0233A363E5
:102D4800E38F013B9BB2E38714E0226813684021BC
:102D58008B431360226811688023DB010B431360E7
:102D6800D4E7FFF737F9801BA84201D36B1C14D1B5
:102D7800002D12D0E18F89B2002946D023689A68C5
:102D88009207EED5A26B1288DA60A36B0233A363B5
:102D9800E38F013B9BB2E387ECE75D230122E2541A
:102DA80003274EE06368002B02D04B46012B14D159
:102DB800A36B1B7822681373A36B0133A363E38FA0
:102DC800013B9BB2E38708E0FFF704F9801BA842A8
:102DD80001D36B1C14D1002D12D0E18F89B20029C8
:102DE80013D023689A689207EED5A26B12781A73EB
:102DF800A36B0133A363E38F013B9BB2E387ECE74B
:102E08005D230122E25403271BE032002900200041
:102E1800FFF790FE002801D020232366A368002B2B
:102E280006D103932368DA6803929B680393039B94
:102E3800236E002B05D15D330122E254002700E008
:102E480002275C230022E254380004B080BCB94653
:102E5800F0BD0227F8E70000F8B5040000261DE0E1
:102E6800244AB3009F58731C9B009B58F0004019DC
:102E780042001018690049195A00D218D20089185E
:102E88007B00DB199B01C9181B4B1818611803221A
:102E980000F090FA0135072DE2DD01360B2E01DC3A
:102EA8000025F8E700261FE0144AB3009F58731C5A
:102EB8009B009B5830000C30C0004019420010188D
:102EC800690049195A00D218D20089187B00DB1909
:102ED8009B01C918084B18186118032200F06AFAF8
:102EE8000135072DE0DD01360B2E01DC0025F8E762
:102EF800F8BDC0469437000898050020C837000878
:102F0800F0B5CE46474680B583B00400150001935E
:102F18000B00C033DB001E58C9004118144B9C46F7
:102F280061440B689946500080185F00FB18DB006D
:102F3800C018730098469B199B01C01820180322DB
:102F480001A900F037FA0720451B680040194644DC
:102F5800F60080194F44BF01C0192018032201A9A7
:102F680000F028FA03B0C0BCB946B046F0BDC04670
:102F78000406000010B50A23C82202490248FFF7D8
:102F88008FFE10BDD00400206804002010B586B064
:102F98000190002306E0802211E008210A4303A9DA
:102FA800CA540133042B15D001AA107859000722FE
:102FB800521A010011410A00D207ECD5C02203A918
:102FC800CA5452B20321C91A49000841C107E4D5BD
:102FD8000C21E3E7002206E0802311E008210B43DF
:102FE80003A90B550132042A16D001AB58785100B9
:102FF80007235B1A010019410B00DB07ECD5C0233E
:10300800141D03A90B555BB20321891A4900084115
:10301800C107E3D50C21E2E7002206E0802311E096
:1030280008210B4303A90B550132042A17D001AB21
:103038009878510007235B1A010019410B00DB0740
:10304800ECD5C0231400083403A90B555BB2032147
:10305800891A49000841C107E2D50C21E1E70A2392
:103068000C2203A90248FFF71BFE06B010BDC0469C
:103078006804002010B500240DE009496200121907
:10308800535C89184A78120213438878000418435D
:10309800FFF77CFF0134BF2CEFDDFFF76BFF10BD9E
:1030A8009805002030B585B001AC01900D1C207842
:1030B800FDF72AFE291CFDF733FBFDF705FE2070FE
:1030C8006078FDF721FE291CFDF72AFBFDF7FCFDC2
:1030D8006070A078FDF718FE291CFDF721FBFDF7AD
:1030E800F3FDA07003AB22881A80A2789A705A78F0
:1030F8001202187810439B781B04024A10401843A8
:1031080005B030BDFFFF00FF10B5012800D010BD8D
:10311800064B9942FBD1064860220649C023DB00D2
:103128009C46604400F046F9F1E7C046FFFF000006
:10313800D8070020B436000830B585B003222549E9
:1031480002A800F037F9244B1C68FE218905201CD1
:10315800FDF784F8002805D0211C8020C005FDF764
:1031680005FC041C211C201CFDF7DAFA211CFDF7C4
:10317800D7FA011C0298FFF795FF01AB18700204FB
:10318800120E5A700002000E9870134D134B1968F6
:103198002868FDF777F8041C28608021C905FDF729
:1031A8005DF8002805D08021C905201CFDF7DEFB4D
:1031B800286003AB01AA1188198092789A705A780E
:1031C8001202187810439B781B04054A10401843D4
:1031D80005B030BD0C0000203C0E0020140000207B
:1031E800FFFF00FF30B583B0334B1A68334B1A60CA
:1031F800002500E00135072D14DCFFF79DFF01AB2A
:1032080018700204120E5A700002000E9870002402
:10321800022CEFDC019B2A0021002948FFF770FEF1
:103228000134F5E7002500E00135072D14DCFFF730
:1032380083FF01AB18700204120E5A700002000ED0
:1032480098700324082CEFDC019B2A0021001C48FD
:10325800FFF756FE0134F5E7002500E00135072D9C
:1032680014DCFFF769FF01AB18700204120E5A70E4
:103278000002000E987009240B2CEFDC019B2A0039
:1032880021000F48FFF73CFE0134F5E70A4D0D4BCE
:1032980019682868FCF7F6FF041C28608021C90516
:1032A800FCF7DCFF002805D08021C905201CFDF7AC
:1032B8005DFB286003B030BD380E00203C0E0020B6
:1032C800D80700201000002010B5FEF783FE054C3B
:1032D8002060FFF787FFFEF77DFE2368C01A024BC8
:1032E800186010BD400E0020440E002010B5FEF7F7
:1032F80071FE054C2060FFF775FFFEF76BFE236833
:10330800C01A024B186010BD400E0020440E002069
:1033180010B5FEF75FFE0A21FCF774FF002907D0FD
:10332800FEF758FE0A21FCF76DFF002903D010BDF7
:10333800FFF7A0FEF4E70248FFF78EFDF7E7C04667
:10334800D807002010B502490120FFF7DDFE10BDA7
:10335800FFFF0000062010B500F0D2F80120FEF7AC
:10336800BBFDC046014B18687047C04618000020D6
:1033780070B50C4D0C4E761BB61005D0002408CD48
:1033880001349847A642FAD100F084F9074D084E57
:10339800761BB61005D0002408CD01349847A64204
:1033A800FAD170BD5039000850390008503900086A
:1033B8005C390008F0B5C64600B50F2A41D9032785
:1033C8000D003E0005430C0003002E402F423DD166
:1033D8001500103D2D09A8462D01AC4684442768E8
:1033E8001D001F6067685F60A7689F60E76810340A
:1033F800DF6010336545F2D145460F230C240135B3
:103408002D01491913404519144222D08C59AC5149
:1034180004369C1B032CF9D8043B9B0801339B0002
:10342800ED18C91803231A40561E002A06D0002397
:10343800CC5C1A00EC5401339642F9D180BCB846F2
:10344800F0BD0500561E002AF1D1F7E70500561E0B
:10345800EDE71A00F6E7C046F0B50500830749D046
:10346800541E002A45D003000326CAB202E00135E3
:10347800013C3ED301332A703342F8D1032C30D9B2
:10348800FF220A40150215432A0415430F2C34D98C
:103498002700103F3F093E01B4461E001A001036AF
:1034A8006644156055609560D5601032B242F8D117
:1034B80001373F01DB190F270C22274022403C002F
:1034C800002A0ED03E1FB608B400A4461A001C1DE0
:1034D800644420C2A242FCD103240136B6009B19E1
:1034E8003C40002C05D0C9B21C19197001339C420C
:1034F800FBD1F0BD03001400C0E72700E2E7C04697
:10350800164B70B504001D681F2821D8B7239B00EF
:10351800EB58002B0DD082009B181A68002A08D09F
:10352800012A13D0511C0DD00021196090470020AA
:1035380070BD280000F028F822000100280000F0E3
:103548000FF8F5E7162301202B60F1E70020EFE7DD
:10355800162301202B604042EAE7C04618000020ED
:10356800002370B5074D0400080011002B60FEF71A
:10357800ABFC431C00D070BD2B68002BFBD0236034
:10358800F9E7C0464C0E002010B5FEF79BFC10BDB5
:10359800034B10B5002B02D0024800F005F810BD0F
:1035A80000000000C135000810B50100002300220A
:1035B800002000F019F810BD70B5074D074C641BCA
:1035C800A41005D0013CA300EB589847002CF9D172
:1035D80000F066F870BDC0465C3900086039000824
:1035E8007047C0467047C046F0B5D6464F46464677
:1035F800C0B5264F82B0060038689246984689467C
:10360800FFF7EEFF224B1B680193A423019A5B008E
:10361800D558002D2ED06C681F2C30DC002E0FD111
:10362800631C6B604B460234A40038686351FFF793
:10363800D9FF002002B0E0BCBA46B146A846F0BDAA
:10364800882251462800A300EB189950873AA240D7
:103658008930FF30016811430160842140464900E8
:103668005850022EDCD12B008D33FF3319680A43E2
:103678001A60D5E715004D35FF35D550CBE73868CA
:10368800FFF7B0FF01204042D4E7C04648040020BD
:10369800FC370008F8B5C046F8BC08BC9E46704721
:0C36A800F8B5C046F8BC08BC9E46704750
:1036B4000000000002000000000000000100000003
:1036C40000000000040000000200000006000000EA
:1036D40002000000030000000100000005000000DB
:1036E40001000000030000000400000006000000C8
:1036F40004000000050000000600000007000000B0
:10370400050000000700000003000000070000009F
:10371400CC0700089C0700089C0700089A070008CB
:10372400A0070008A0070008E80800089A07000896
:10373400A0070008E8080008A00700089A07000886
:103744009408000894080008940800082409000854
:103754000000000000000000000000000000000065
:103764000000000000000000000000000000000055
:10377400010000000200000003000000040000003B
:103784000600000007000000080000000900000017
:103794000000000002000000060000000400000019
:1037A400000000000400000005000000010000000B
:1037B40000000000010000000300000002000000FF
:1037C40000000000070000000600000002000000E6
:1037D40003000000070000000300000001000000D7
:1037E40005000000070000000500000004000000C0
:0C37F4000600000007000000200000207C
:1038000074B20181B0AB30800000000080080181FB
:10381000B0B0ABF0000000003F020181B0AB3080DF
:103820000000000080060181B0B0ABF00000000095
:1038300064D5FF7F0100000010D6FF7FB0A9028091
:10384000A4D6FF7FB0B0A880F8D6FF7F01000000AB
:1038500004D7FF7FB0B0AA8038D7FF7FA4FFFF7FD7
:1038600000D8FF7F01000000FCD7FF7FAA3F39800E
:1038700048D8FF7FB0B0A88054D8FF7FB0B0AA80EE
:1038800094D8FF7FB0B0A880A8D8FF7F01000000C7
:10389000A4D8FF7FB0B0A880ACD8FF7F01000000A3
:1038A0003CD9FF7FAA0FB280A4D9FF7F60FFFF7FC2
:1038B00088DCFF7FB0B0A880A4DCFF7F5CFFFF7FC7
:1038C00004DFFF7F0100000074E0FF7F00840480BC
:1038D00084E0FF7FB0B0A88084E0FF7F48FFFF7FD7
:1038E0006CE3FF7F008404808CE3FF7FB0B0A8808E
:1038F000A4E3FF7F010000004CE4FF7F00841280FE
:10390000BEE4FF7FB0B0A880D2E4FF7F01000000DA
:103910006CF6FF7FB0B0A8807CF6FF7FB0A8058072
:103920005CF7FF7FB0B0A88084F7FF7F0100000044
:1039300010F8FF7FB0A90480B4F8FF7FB0A902801F
:1039400090F9FF7FB0B0A88004FAFF7F010000006B
:0C39500099350008E10000084D33000824
:04395C00B9000008A6
:103960000024F4000100000004000000EE14FF0039
:103970006F12833BCDCCCC3D200000200000000026
:10398000000000000C03002074030020DC03002072
:103990000000000000000000000000000000000027
:1039A0000000000000000000000000000000000017
:1039B0000000000000000000000000000000000007
:1039C00000000000000000000000000000000000F7
:1039D00000000000000000000000000000000000E7
:1039E00000000000000000000000000000000000D7
:1039F00000000000000000000000000000000000C7
:103A000000000000000000000000000000000000B6
:103A100000000000000000000000000000000000A6
:103A20000000000000000000010000000000000095
:103A30000E33CDAB34126DE6ECDE05000B0000005A
:103A40000000000000000000000000000000000076
:103A50000000000000000000000000000000000066
:103A60000000000000000000000000000000000056
:103A70000000000000000000000000000000000046
:0C3DA0000000000000000000480E0020A1
:0400000508001EF1E0
:00000001FF
