:020000040800F2
:100000000020002011140008DD130008DF13000891
:1000100000000000000000000000000000000000E0
:10002000000000000000000000000000E1130008D4
:100030000000000000000000E3130008E5130008C2
:100040006114000800000000611400086114000839
:1000500061140008611400086114000861140008AC
:100060000000000061140008611400086114000819
:100070006114000861140008611400080000000009
:100080006114000800000000000000006114000876
:1000900000000000611400086114000861140008E9
:1000A000611400086114000861140008611400085C
:0800B0006114000800000000CB
:1000B80010B5064C2378002B07D1054B002B02D036
:1000C800044800E000BF0123237010BD3C04002059
:1000D80000000000E4260008044B10B5002B03D0F4
:1000E8000349044800E000BF10BDC04600000000FE
:1000F80040040020E4260008002243088B4274D301
:1001080003098B425FD3030A8B4244D3030B8B4210
:1001180028D3030C8B420DD3FF22090212BA030C19
:100128008B4202D31212090265D0030B8B4219D3FA
:1001380000E0090AC30B8B4201D3CB03C01A52411A
:10014800830B8B4201D38B03C01A5241430B8B4262
:1001580001D34B03C01A5241030B8B4201D30B034B
:10016800C01A5241C30A8B4201D3CB02C01A524172
:10017800830A8B4201D38B02C01A5241430A8B4235
:1001880001D34B02C01A5241030A8B4201D30B021E
:10019800C01A5241CDD2C3098B4201D3CB01C01A38
:1001A800524183098B4201D38B01C01A5241430942
:1001B8008B4201D34B01C01A524103098B4201D330
:1001C8000B01C01A5241C3088B4201D3CB00C01A9D
:1001D800524183088B4201D38B00C01A5241430815
:1001E8008B4201D34B00C01A5241411A00D201463A
:1001F800524110467047FFE701B5002000F006F8AD
:1002080002BDC0460029F7D076E770477047C04660
:1002180003685A0004D5802212061343C018704799
:100228005B005B08FAE7C046F8B557464546DE4628
:100238004E469046E0B50700002924D04B1E9A464A
:10024800994600239B465B464B44DC0FE418641038
:10025800E5007E193000FFF7DBFFA2450CD04045D2
:100268000CD8280008303818FFF7D2FF013840456D
:100278000AD2631C9B46E6E7404505D9A34502D050
:10028800631E9946DFE700263000F0BCBB46B24645
:10029800A946A046F8BDC0460300012805D002289B
:1002A80007D00020002B02D070470348FCE7034822
:1002B800FAE70348F8E7C046C9090008BD0900087D
:1002C800D509000830B5234B050083B08C1E002BE0
:1002D80026D0200001A900E000BF00281CD0019909
:1002E8002200FFF7A1FF041E16D0FFF791FF6368F5
:1002F800A864012B2AD0201D002B23DBFFF788FFE1
:100308000023E8642B650368002B0FDBFFF780FFF1
:100318002861002003B030BD002309202B61F9E7D4
:100328000D480E49091AC9100191D9E71801000FA3
:10033800FFF7B2FF2861431E9841082340429843C3
:100348000930E7E70123E8642B65DCE70023052093
:100358002B61DFE7000000007827000878280008F4
:10036800036810B50400DA0705D49B070AD548309E
:1003780000F080FC23685A070AD51A070FD5DB0658
:1003880015D510BD483000F071FC23685A07F4D425
:100398002000D03000F072FC23681A07EFD4200048
:1003A8005130FF3000F06EFC2368DB06E9D42000F2
:1003B800D130FF3000F06AFCE3E7C04609207047FF
:1003C80003000068002800D0C01870477047C04676
:1003D80070B504000D002000296CFFF773FF00289A
:1003E80011D12B6C2A0063612100012023699847F1
:1003F8000828F0D0072806D10020296CFFF7E6FF6F
:10040800281D00F01DFC01F0C9FFC046F0B5CE461E
:10041800474680B5C368304C9846A54483690400B4
:1004280016000431402205A8994601F0E7FF002391
:10043800049325E0F022149B5200636104A97CA870
:10044800039301F0DBFF2100280023697CAA984769
:100458008A9B0500039315934B46019304AB0093C5
:100468002200230031000120C047002822D1F022B9
:100478007CA9520004A801F0C1FF0026082D22D152
:10048800149B200019000393FFF71CFF093607008F
:10049800F5B20028CED0129B1021039315934B463A
:1004A800019304AB00932200230001202943C04795
:1004B800002800D009273800F5239B009D44C0BCC4
:1004C800B946B046F0BD072DF4D130001499FFF7B6
:1004D8007DFF05A800F0B4FB2CFCFFFF406C7047C3
:1004E80070B5CB6BFAB00B6405000E0040220431E6
:1004F80003A801F083FF01235B42029306E0290071
:100508002B6902AA9847040008280AD1129B2800E0
:1005180019000193FFF7D6FE0028F0D009207AB021
:1005280070BD02A8FFF71CFF062CF7D13100280088
:10053800FFF74EFF10B58261DA6BC1601A641900CB
:100548000022FFF763FF10BD436970B50B64C368F1
:1005580004000D00002B13D10A00236901000220BA
:100568009847072805D008280FD129002000FFF751
:100578002FFF0020296CFFF729FF281D00F060FBE2
:100588000122FFF743FF01F009FF01F007FFC04612
:10059800C36810B5002B05D0CB6B00220B64FFF7A6
:1005A80035FF10BDFFF79CFFFBE7C0467047C0460C
:1005B8008368010010B5002B01D00120984710BDB9
:1005C800012915D00AD8002B10D10F2A0ED8920075
:1005D80082185268009B00201A6006E00120033947
:1005E800C9B2884280414042013070470220FCE78E
:1005F8000120FAE700B585B003AB0A00009300219B
:100608000023FFF7DDFF039805B000BD012915D0D1
:100618000AD8002B10D10F2A0ED8009B92001B6815
:1006280082185360002006E001200339C9B28842CD
:1006380080414042013070470220FCE70120FAE780
:1006480000B585B003AB039200930A000023002194
:10065800FFF7DCFF05B000BD70B51A4CD36BA5449D
:10066800136405000C0019A8111D402201F0C6FEF4
:1006780001235B42189314E00C2118A802AAFFF783
:10068800DFFF210018A8A847002812D1069B18AA46
:1006980002A9083001939847060005280AD00928BE
:1006A80007D0289B02A819000193FFF70BFE00282A
:1006B800E2D0092618A8FFF753FE300090239B00CC
:1006C8009D4470BDC0FDFFFFF0B55746924603221A
:1006D80045464E46DE4699461300E0B58846CD6C41
:1006E800494689B00340009308CD0695002900D1FA
:1006F80080E01A0C1B040593022304A90B73FD3335
:1007080013409B004A73ED18009B022B01D143460E
:100718009D6B43461B6DDB070FD5504605A900F0BE
:100728005BFB002801D1082000E0092009B0F0BCDB
:10073800BB46B246A946A046F0BD2F68002FECD0B4
:1007480008230340029300230193013354469B4638
:100758004646BA464B46022B49D02B886F889A46A4
:1007680004355A463B009343B26C0F219046200053
:100778009844FFF73FFF0023804506D853465A4662
:100788009343434498429B415B4202227F001740B7
:10079800594652460A401743012F30D0022F4CD0F9
:1007A800002FC2D1009A002A02D0002B00D09BE073
:1007B80004352B689A46002BCCD1200005A9A24607
:1007C80000F00AFB0028B0D1019B002BABD00F2111
:1007D8005046FFF70FFF0E2102005046FFF730FF8B
:1007E80050460F21724AFFF72BFF07209EE76F68DC
:1007F8000835B6E71B02059304AB9A8184E7009A93
:10080800002A49D1002B16D02B68DF0F6B689A1C81
:1008180000D18AE7320058320492013300D1B6E0A1
:10082800281DFFF7CDFD3A00010004AB300000E0C1
:1008380000BF00286CD10835BBE72A68009957002B
:100848007F0800290DD1002B04D0029B002B72D009
:10085800002F3CD0002A00DA04350137BF00ED191B
:10086800A7E7336A0D2120009846FFF7C3FE8045AD
:1008780001D02A68EEE7B36A9D42FAD10023F362F9
:10088800043333632B1DB76273632B68002B00DAC4
:1008980087E001230193E0E70D212000376AFFF785
:1008A800A9FE8742C7D1B36A9D42C4D1B046A246C9
:1008B8002800FFF7ADFC0F2102005046FFF7C0FEED
:1008C800504642460021FFF7BBFE07202EE7B04600
:1008D800A2460D215046FFF78DFE4346049A186242
:1008E8005A6206209D6221E72800FFF791FC043533
:1008F800A246B5630400300000E000BF002800D124
:1009080013E7504622000F21FFF79AFE07200DE754
:10091800A2460D2104005046FFF76CFEB046330096
:100928003062022C39D1049A2C33F2627362434646
:1009380006209D62FAE62B1D9A46002398465833F6
:100948009C4621004A46B4445446A9468A463D007E
:1009580003924746E0460EE0434620000493FFF723
:100968002FFD0022010004AB300000E000BF01377A
:100978000434002804D1AF42EED14D46B046A8E772
:100988002F004D46039B544699462A6862E70D217D
:100998002000FFF72FFEB04630624346049A5A62A1
:1009A800C5E7781C8000B046A246281881E7C046F3
:1009B8000000000010B50023FFF786FE10BDC046FA
:1009C80010B50123FFF780FE10BDC04610B5022305
:1009D800FFF77AFE10BDC046F0B5CE46474680B553
:1009E800050014001E00C3B0032944D020D80029F4
:1009F80049D0012941D1130C14049846230C994677
:100A0800012E00D17AE0052E37D144464C44202CE3
:100A180033D843460F2B00D8B5E04C46002C00D005
:100A2800C2E04A46A96B20AF002A22D000247FE00A
:100A3800042922D1002B20D1102A1ED810220368A5
:100A48001A4200D0C7E020AF380000F021F9012693
:100A580039000023AA6B30009840044201D001CA33
:100A6800086001330431042BF5D13800AA6300F083
:100A78000DF9002002E0032B1CD0022043B0C0BCBB
:100A8800B946B046F0BD002BF7D100230127160464
:100A9800826B360C011D38009840064201D001CA0D
:100AA800086001330431102BF5D10020A304E5D4EC
:100AB800AA63E3E71404160C240C3319102BDCD8B2
:100AC800082203681A4200D08CE020AF380000F0FA
:100AD800DBF8F600AB6B002C0AD0F61AE400321FE4
:100AE8001C19BA181900096804339950A342F9D19E
:100AF8003800AB6300F0C6F80020BFE743464B441C
:100B0800102BBAD843460F2BB7D82B681E4206D0F5
:100B18000322280093432B60483000F0A9F820AF47
:100B2800380000F0A5F84A460024A96B002A61D0D5
:100B38004346DB00FF180023D200C858F85004339E
:100B48009A42FAD18918002C0FD06F4640461028D7
:100B580000D2102000231038C0003818E200CF5807
:100B6800C75004339342FAD1C918012E41D04346E5
:100B7800A9630F2B45D9002C00D17AE7684600F00D
:100B88007DF800207AE7102C46D9103C01222B680A
:100B98001A4207D093430222280013432B6048309F
:100BA80000F06AF8002C39D004222B681A422CD1A4
:100BB80043460F2B03D820AF380000F05DF86F468E
:100BC800380000F05DF810224346A96BD21A002ABB
:100BD800BCDD20AFACE793430360D130FF3000F0B9
:100BE80057F830E7934303605130FF3000F04CF87A
:100BF8006BE720AF04313800A96300F037F8002014
:100C08003CE720A800F036F8B5E7280093432B60AE
:100C1800D03000F035F8CBE70024B7E743460F2B78
:100C280000D9FEE620AF380000F026F84A46A96B46
:100C3800002A00D0FAE6380000F01CF800201DE772
:100C48000100343138C9043B9C461D60A6460100AA
:100C580020313CC990469946A246AB46010008316E
:100C6800FCC941680068E54600BDC0467047C046FB
:100C78007047C0467047C0467047C0467047C04678
:100C88007047C0467047C0467047C0467047C04668
:100C98007047C04601B401A801B585B0FFB408A8E3
:100CA80041464A4653465C4665463EC001A83EC892
:100CB8000F98009000230CB401A9FFF711FC109BBA
:100CC80012B0184701B401A801B585B0FFB408A84F
:100CD80041464A4653465C4665463EC001A83EC862
:100CE8000F98009000230CB401A9FFF72DFC109B6E
:100CF80012B0184701B401A801B585B0FFB408A81F
:100D080041464A4653465C4665463EC001A83EC831
:100D18000F98009000230CB401A9FFF739FC109B31
:100D280012B0184701B401A801B585B0FFB408A8EE
:100D380041464A4653465C4665463EC001A83EC801
:100D48000F98009000230CB401ABFFF7F3FB109B46
:100D580012B0184701B401A801B585B0FFB408A8BE
:100D680041464A4653465C4665463EC001A83EC8D1
:100D78000F98009000230CB401AAFFF76DFC109B9C
:100D880012B01847027A0300002A0BD1427A002ACF
:100D98000FD0013A42724268111D41600321126866
:100DA800017202E0013A02720268100E12021A6021
:100DB8007047B020FCE7C04600B585B003AB009390
:100DC8000C2200230021FFF7FBFB039805B000BDB0
:100DD80010B5FFF7F1FF10BDF0B54E464546574632
:100DE800DE460023E0B587B003930F339846083BEF
:100DF800994680231B0305000E009A463000FFF732
:100E0800C1FF0400B02800D1C1E0030629D50300C2
:100E180042469343DBB2802B53D0902B3DD0A02B7E
:100E28006BD0B02B00D17EE0C02B00D195E0030041
:100E38004A469343DBB2D02B0AD1534602400132D3
:100E48001A43052301212800FFF7C6FD0028D5D045
:100E58000924200007B0F0BCBB46B246A946A0460C
:100E6800F0BDFF23820013401F1D05AB9B46009376
:100E78000D22002300212800FFF7A2FB630639D4C6
:100E8800059B9C4667445B460597009300230D220B
:100E980000212800FFF7BAFBB0E7833B03400D2B86
:100EA800D6D005AF02400023002128000097FFF7A5
:100EB80087FB00230D22002128000097FFF7A6FBDF
:100EC8009CE704023000FFF75DFF802720433F02C4
:100ED800B842BDD004010005020C002300212800FF
:100EE800FFF77AFD0028B3D13C4200D186E7012301
:100EF800039383E7059BDF1BC5E7FF234A461B01D6
:100F08001900824311410A001A40030702D58023C1
:100F1800DB011A43002300212800FFF75DFD0028AC
:100F280000D16BE794E7B12845D0B22800D19FE003
:100F3800B32855D0FC230340B42B00D188E74A4698
:100F48005346024001321A43012101232800FFF7CA
:100F580043FD002800D151E77AE7C6284BD0C728BF
:100F68005DD003004A469343DBB2C02B6CD0C8283F
:100F780071D0C92800D06BE73000FFF703FFF023DA
:100F880002031B03134042460240013258E7039B09
:100F98000024002B00D05CE705AE0E2200212800BB
:100FA8000096FFF70DFB00230F2200212800009672
:100FB800FFF72CFB4DE73000FFF7E4FE021E00D1DF
:100FC80046E7030041468B43DBB2002B00D03FE7E6
:100FD80000212800FFF700FD002800D10EE737E7C1
:100FE8003000FFF7CFFEF02302031B0313404246F5
:100FF80002400132A7E73000FFF7C4FEF0230203E6
:101008001B0313404246024001321A4303230321C3
:101018002800FFF7E1FC002800D1EFE618E73000D0
:10102800FFF7B0FE021E00D112E7030041468B43D2
:10103800DBB2002B00D00BE704212800FFF7CCFC23
:10104800002800D1DAE603E74346A0221C40013419
:1010580012032243DAE73000FFF794FE434602000A
:101068009A43D2B210321840120301300243E8E624
:1010780005AB00939B460D22002300212800FFF7B3
:101088009FFA3000FFF77EFE03061AD57F27B03C93
:10109800059B3840A0409C466044059030000734CA
:1010A800FFF770FE0306F3D481217F2389008C4665
:1010B8000340A340059A62449B1805935B4600933E
:1010C800E4E60224F0E7C046030000B5DA6C85B018
:1010D80053680800083219020191029269460322F6
:1010E8001B0E0A734B7301A9FFF776FE05B000BD0E
:1010F80010B5FFF76DFE806C10BDC04610B5FFF748
:1011080067FEC26CD07902308000101810BDC0464E
:1011180070B588B01422002103A801F0C1F9164B5C
:101128005A6B012422435A635A6B22400192019A56
:10113800596B0222114359635B6B1A400292029B5E
:10114800A026F60500227021300000F0F3FA702383
:101158000393049400250595069503A9300000F033
:101168002DFA032303930495059403A9034800F07B
:1011780025FA08B070BDC0460010024000040050B7
:1011880070B584B0002620E080230FE008210B43CF
:1011980001A90B550132042A16D08519835D540024
:1011A8000721091B0B41DB07EED5C023B400A418A7
:1011B80001A90B555BB22D780321891A49000D410D
:1011C800E907E3D50C21E2E70136032E01D000221E
:1011D800E1E70A230C2201A9024801F003F804B050
:1011E80070BDC0465804002000B5B3B0002300937A
:1011F800C422002101A801F053F90A23C822694634
:10120800024800F0EFFF33B000BDC046580400208C
:1012180072B6FEE710B51148114B036082235B00DC
:10122800436000238360E022D200C2600361012290
:101238004261802292008261E93AFF3AC261036208
:1012480043628362113AC2620363436300F048FF5A
:10125800002800D110BDFFF7DBFFC046580400206E
:101268000030014000B593B03422002105A801F0F8
:1012780017F91022002101A801F012F9802080003E
:1012880000F05EFA022305938022520008920022A1
:10129800099240320A920C930D930E330E93093340
:1012A8000F9380239B021093C023DB05119305A89D
:1012B80000F070FA00280ED107230193053B029332
:1012C800002303930493022101A800F011FD0028D4
:1012D80003D113B000BDFFF79BFFFFF799FF000094
:1012E80030B583B000F0E6F8FFF7BCFFFFF710FF5A
:1012F800FFF790FF01AB124A1188198092789A7013
:10130800104B1A8869460A809B788B7001250CE07F
:101318006846FFF735FFFFF767FF0135EDB2C22DCD
:1013280000D1C13D322000F0EBF800246B1E9C4236
:10133800EEDA01A8FFF724FF0134E4B2F6E7C0466D
:10134800FC2600080027000882B00A4B196C01220D
:1013580011431964196C0A400092009ADA6B8021D3
:1013680049050A43DA63DB6B0B400193019B02B02A
:101378007047C0460010024010B588B0040014221F
:10138800002103A801F08CF82268104B9A4201D082
:1013980008B010BD0E4B196C802040010143196440
:1013A8001A6C02400192019A596B01221143596348
:1013B8005B6B1A400292029B82230393803B049347
:1013C800A02003A9C00500F0F9F8E1E700300140CA
:1013D80000100240FEE7FEE77047704710B500F0C6
:1013E8007DF810BD0120704710B500F0DFFF16230F
:1013F80003600120404210BD10B501214942FFF7AA
:10140800F3FFFEE7704700000D488546FFF7FAFF37
:101418000C480D490D4A002302E0D458C450043347
:10142800C4188C42F9D30A4A0A4C002301E013601D
:101438000432A242FBD300F0BFFFFFF751FFFEE7E3
:1014480000200020000000203C0400208428000820
:101458003C040020C8040020FEE7000010B504008A
:10146800114B1978002901D1012010BDFA20800004
:10147800FEF742FE01000D4B1868FEF73DFE00F036
:1014880081F800280DD1032C01D90120EDE70130A6
:1014980000222100404200F045F8054B1C60002066
:1014A800E3E70120E1E7C046040000200000002037
:1014B8000800002010B5084A116880235B000B4320
:1014C80013600320FFF7CAFF041E02D00124200086
:1014D80010BDFFF739FFFAE700200240034B1B78E5
:1014E800034A11685B1813607047C0460400002067
:1014F800BC040020014B18687047C046BC0400209B
:1015080070B50400FFF7F6FF0500631C02D0044B1A
:101518001B78E418FFF7EEFF401BA042FAD370BD1A
:101528000400002070B5002811DB8308134EC03377
:101538009B009D5903242040C000FF2214008440D2
:10154800A54389010A4082402A439A5170BD0F235E
:101558000340083B9B0806339B00094A94466344B2
:101568005C6803221040C000FC3215008540AC4383
:1015780089010A40824022435A60E7E700E100E01F
:1015880000ED00E0013880235B0498420FD2094A3D
:1015980050600948036A1B021B0AC02109060B4355
:1015A8000362002393600733136000207047012013
:1015B800FCE7C04610E000E000ED00E0F0B50023D5
:1015C8005AE084685F000326BE40B4432600CC6816
:1015D800BC4034438460446894434A681609012235
:1015E80032409A402243426056E0DC080834A400A6
:1015F800265805321A4092000F279740BE430F69BC
:1016080097403A00324322505AE0032600E0002671
:10161800A64034003C43434E18329200945134683B
:10162800EA432600AE434F68FF0201D52C4326004B
:101638003C4C26606468260016404F68BF0201D5FE
:101648002C432600374C66608426A4592600164091
:101658004F68BF0301D52C432600324C8427E6513E
:101668008026A45922404E68F60301D52A00224359
:101678002C4D80242A5101330C682200DA404FD0C7
:1016880001229A40250015401442F4D003244E68E4
:101698003440013C012C94D903224C682240032A8F
:1016A80009D0C2685E000324B440A24314008A68CB
:1016B800B2402243C26003224C682240022A94D0DE
:1016C80004685E0003221700B740BC434F683A40E5
:1016D800B24022430260C02292024C681442CAD02F
:1016E8009A0814001834A4000E4EA75903241C406D
:1016F800E4000F26A640B743A026F605B04286D0E0
:10170800094EB04208D0094EB04207D0084EB04248
:1017180000D17AE705267BE7012679E7022677E7F5
:10172800F0BDC046001802400004005000080050F8
:10173800000C0050002A01D0816170478162FCE7EB
:1017480010B5104A136810490B40034313608023F7
:101758009B00984201D0002010BD0C4B1B6858001C
:10176800C01840000A49FEF7C7FC0130054B5B6909
:101778005B0503D5002803D00138F7E70020EBE725
:101788000320E9E700700040FFF9FFFF0000002098
:1017980040420F0070B582B0041E00D129E20368F0
:1017A800DB0739D5C14A916838230B40D168032239
:1017B8000A40102B26D0082B26D0636880225202BC
:1017C80093427FD0A022D202934200D181E0B74B4E
:1017D8001A68B7490A401A601A68B6490A401A6076
:1017E8006368002B00D180E0FFF784FE0500AF4B53
:1017F8001B689B0310D4FFF77DFE401B6428F6D9B5
:101808000320F7E1032AD6D1A84B1B689B0303D515
:101818006368002B00D1EFE123689B0731D5A34A09
:10182800936838210B40D16803220A40102B6AD0F4
:10183800002B6BD19D4A1268520503D5E268002A35
:1018480000D1DBE1994842689B490A406169090275
:101858000A434260002B0DD1036898490B40216967
:101868000B4303600368DB0A07221A40944BD340FA
:10187800944A1360944B1868FFF7F0FD002800D0D5
:10188800BEE123681B0700D481E0884B9A6838239F
:101898001340182B73D0A369002B00D1B4E0834AFE
:1018A800136E01210B431366FFF724FE05007F4BDF
:1018B8001B6E9B076BD4FFF71DFE401B0228F6D951
:1018C800032097E1794A116880235B020B43136078
:1018D80086E7764B19688022D2020A431A60196893
:1018E800802252020A431A607AE7FFF703FE0500D6
:1018F8006E4B1B689B038FD5FFF7FCFD401B6428CC
:10190800F6D9032076E1022A92D193E7E368002B07
:1019180022D0664A136869490B4021690B4313605A
:10192800116880235B000B431360FFF7E3FD05009C
:101938005E4B1B685B0506D4FFF7DCFD401B0228E5
:10194800F6D9032056E159494B685B4A134062694E
:10195800120213434B6094E7544A13685B490B40E7
:101968001360FFF7C7FD0500504B1B685B0588D562
:10197800FFF7C0FD401B0228F6D903203AE14B4B84
:101988001B6E9B0703D5A369002B00D13AE123689E
:101998005B0700D4A2E0454B9A6838231340202BFC
:1019A80045D0424BDB6BDB004AD4404AD16B8020E8
:1019B80040050143D163D36B03400193019B01258B
:1019C800434B1B68DB053DD5A368012B4ED0052B87
:1019D80052D0364BDA6D01218A43DA65DA6D03316C
:1019E8008A43DA65A368002B50D0FFF783FD060011
:1019F8002E4BDB6D9B076FD4FFF77CFD801B354BAF
:101A08009842F5D90320F5E0284A136E01218B434B
:101A18001366FFF76FFD0500244B1B6E9B07B6D5B9
:101A2800FFF768FD401B0228F6D90320E2E01F4BB0
:101A3800DB6D9B0752D5A368002B4FD10120D9E05D
:101A48000025BDE7224A116880235B000B43136021
:101A5800FFF750FD06001E4B1B68DB05B4D4FFF7EB
:101A680049FD801B0228F6D90320C3E00F4AD36D35
:101A780001210B43D365B5E70C4BDA6D04210A430A
:101A8800DA65DA6D03390A43DA65ABE7FFF732FD49
:101A98000600064BDB6D9B071ED5FFF72BFD801B51
:101AA8000C4B9842F5D90320A4E0C0460010024030
:101AB800FFFFFEFFFFFFFBFFFF80FFFFFFC7FFFFEA
:101AC8000024F4000000002008000020FFFEFFFFB3
:101AD8000070004088130000012D1ED0E369002B20
:101AE80000D191E04F4A916838220A40102A5ED00E
:101AF800022B18D04B4A13684B490B401360FFF771
:101B0800F9FC0400474B1B689B0149D5FFF7F2FC21
:101B1800001B0228F6D903206CE0424AD36B4349E4
:101B28000B40D363DAE73F4A13683F490B40136021
:101B3800FFF7E0FC05003B4B1B689B0106D5FFF750
:101B4800D9FC401B0228F6D9032053E0354AD36854
:101B580037491940236A606A0343A06A00020343B5
:101B6800E06A0343206B03430B43D360116880236F
:101B78005B040B431360D16880235B050B43D36080
:101B8800FFF7B8FC0400274B1B689B0106D4FFF73E
:101B9800B1FC001B0228F6D903202BE0002029E025
:101BA800204AD36823490B40D360002022E0012B50
:101BB8002CD01C4BDA6803231340216A8B4227D1AF
:101BC80070231340616A8B4224D1FE21C901114060
:101BD800A36A1B0299421FD1F8239B031340E16AB1
:101BE8008B421BD1520F5207236B9A4218D1002007
:101BF80000E0012002B070BD0120FBE70120F9E7F9
:101C08000120F7E70120F5E70020F3E70120F1E7DD
:101C18000120EFE70120EDE70120EBE70120E9E7EC
:101C28000120E7E700100240FFFFFFFEFFFFFFEF84
:101C38008C80C11FFCFFFEEF10B52A4B9B68382231
:101C48001A4207D1274B1A68D20A0723134026489D
:101C5800D84010BD234B9A6838231340082B3BD03B
:101C6800204B9A6838231340102B0DD01D4B9A68CF
:101C780038231340202B31D01A4B9A68382313404D
:101C8800182B26D00020E4E7164AD1680D3B0B40FC
:101C9800D2681209072111400131032B0FD01248D5
:101CA800FEF72AFA0F4BDA68120A7F2313405843CB
:101CB8000C4BD968490F0131FEF71EFAC9E70B48EA
:101CC800FEF71AFA074BDA68120A7F2313405843C3
:101CD800EEE7FA20C001BCE70448BAE7802000021A
:101CE800B7E7C046001002400024F40000127A0052
:101CF80070B504000D00002800D1AAE0574B1A68FF
:101D0800072313408B4221D323689A070ED55B071C
:101D180005D5534A9168E023DB010B439360504A91
:101D2800936850490B40A1680B4393602368DB0715
:101D380054D56368012B20D0022B3BD0002B3FD118
:101D4800474A126852051CD401206AE0434A1368C6
:101D580007218B432B431360FFF7CCFB06003F4B57
:101D68001A6807231340AB42CED0FFF7C3FB801B92
:101D78003D4A9042F3D9032053E0394A126892034E
:101D880069D537498A680720824313438B60FFF778
:101D9800B1FB0600324B9B6838221A406368DB00AF
:101DA8009A421BD0FFF7A6FB801B2F4B9842F1D914
:101DB800032036E02A4A12689201E2D4012030E07A
:101DC800032B05D0264AD26D9207DAD4012028E0E9
:101DD800234A126E9207D4D4012022E01F4B1A68BE
:101DE80007231340AB421DD823685B0706D51C4A5E
:101DF80093681E490B40E1680B439360FFF71CFF93
:101E0800174B9A68120A0F2313409B00184A9A58D6
:101E18001F231340D840174B1860174B1868FFF75B
:101E28001DFB70BD0D4A136807218B432B431360BC
:101E3800FFF760FB0600094B1A6807231340AB4203
:101E4800D2D0FFF757FB801B074B9842F3D90320EA
:101E5800E7E70120E5E70120E3E7C046002002406C
:101E680000100240FFF0FFFF88130000FF8FFFFF04
:101E7800042700080000002008000020F0B5D6461E
:101E88004F464646C0B582B006000D0090461F007A
:101E9800FFF730FB0A9B181A8146B944FFF72AFB63
:101EA80082462E4B1B685B011B0D4A465343019328
:101EB80033689C682C40641B63425C41444545D0B0
:101EC8007B1CF5D0FFF716FB5346C01A48450BD2CA
:101ED8004B46002B08D0019A002A00D04A46019BA5
:101EE800013B01939146E3E732685368E0218B4355
:101EF800536082235B0072689A420CD080239B0156
:101F0800B26A9A4216D05D230122F254013B0022A4
:101F1800F25403201BE0B36880221202934203D0DC
:101F28008022D2009342E9D13268136840218B4362
:101F38001360E3E73268136809490B40136032689D
:101F4800116880239B010B431360DCE7002002B07B
:101F5800E0BCBA46B146A846F0BDC0460000002025
:101F6800FFDFFFFFF0B5DE4657464E464546E0B573
:101F780083B007000D00160098466B460022DA7001
:101F8800FFF7B8FA0C9B181A40448146FFF7B2FADB
:101F980082463B689B46364B1A6893009A18D300D2
:101FA8009B1A1B0D4A465343019302E043460133F3
:101FB80011D13B689C682C40B44250D0C023DB0050
:101FC8009D42F3D1002EF1D15B461B7BDBB26A4602
:101FD800D370D378EAE7FFF78DFA5346C01A48451D
:101FE8000BD24B46002B08D0019A002A00D04A4653
:101FF800019B013B01939146DBE73A685368E02176
:102008008B43536082235B007A689A420CD080230A
:102018009B01BA6A9A4216D05D230122FA54013B09
:102028000022FA5403201BE0BB688022120293426C
:1020380003D08022D2009342E9D13A681368402144
:102048008B431360E3E73A6813680A490B4013604F
:102058003A68116880239B010B431360DCE700207A
:1020680003B0F0BCBB46B246A946A046F0BDC04688
:1020780000000020FFDFFFFF70B582B004000D00F4
:102088001600C02100922B0000224901FFF76AFFC9
:10209800002818D100962B00002280212000FFF78D
:1020A800EDFE002816D1C02100962B000022C900A1
:1020B8002000FFF757FF00280AD0236E2022134381
:1020C8002366032004E0236E2022134323660320A3
:1020D80002B070BD236E2022134323660320F7E766
:1020E80070B5041E00D178E0436A002B07D1053390
:1020F800FF3342689A4205D00023C36102E00023FF
:10210800036143610023A3625D33E35C002B5AD073
:102118005D230222E2542268136840218B43136036
:10212800E368E022D200934254D90022F021090149
:102138008B4205D0E021C9008B4201D00023A36265
:1021480082235B0061680B4084210902A06801407A
:102158000B430221206901400B43012160690840BB
:10216800034380208000A569284003433820E5699F
:10217800284003438020256A2840034380208001AB
:10218800A56A2840034320680360608B042303404A
:102198001020656A284003430820656B28400343E4
:1021A800F0200001E568284003432068134343609A
:1021B8002268D3690A480340D361002323665D334C
:1021C800E154002070BD5C330022E2542000FFF788
:1021D800D3F89DE780225201A8E70120F2E7C04624
:1021E800FFF7FFFFF0B5CE4600B584B004000191BB
:1021F80091461D005C23C35C012B00D1CBE05C231E
:102208000122C254FFF776F906005D23E35CDFB2D2
:10221800012B00D0B6E00199002900D1B3E04B466C
:10222800002B00D1AFE05D230322E2540023236694
:10223800A1634A46A287E28723644422A35202325A
:10224800A3522365E36480231B02A2689A421ED02E
:1022580023681A68520603D41A6840210A431A6090
:10226800E023DB00E2689A423ED96368002B02D083
:102278004B46012B20D12368A26B1288DA60A36B2E
:102288000233A363E38F013B9BB2E38714E0226828
:10229800136840218B431360226811688023DB0197
:1022A8000B431360D4E7FFF725F9801BA84201D33D
:1022B8006B1C14D1002D12D0E18F89B2002946D0B1
:1022C80023689A689207EED5A26B1288DA60A36B2E
:1022D8000233A363E38F013B9BB2E387ECE75D2303
:1022E8000122E25403274EE06368002B02D04B46DC
:1022F800012B14D1A36B1B7822681373A36B0133D2
:10230800A363E38F013B9BB2E38708E0FFF7F2F892
:10231800801BA84201D36B1C14D1002D12D0E18F71
:1023280089B2002913D023689A689207EED5A26B68
:1023380012781A73A36B0133A363E38F013B9BB23B
:10234800E387ECE75D230122E25403271BE0320018
:1023580029002000FFF790FE002801D020232366E3
:10236800A368002B06D103932368DA6803929B685D
:102378000393039B236E002B05D15D330122E254A6
:10238800002700E002275C230022E254380004B052
:1023980080BCB946F0BD0227F8E70000062010B55A
:1023A80000F0D2F80120FFF727F8C046014B186863
:1023B8007047C0460C00002070B50C4D0C4E761BC3
:1023C800B61005D0002408CD01349847A642FAD1AA
:1023D80000F084F9074D084E761BB61005D000248E
:1023E80008CD01349847A642FAD170BD7828000874
:1023F800782800087828000880280008F0B5C64624
:1024080000B50F2A41D903270D003E0005430C00F3
:1024180003002E402F423DD11500103D2D09A8463E
:102428002D01AC46844427681D001F6067685F6003
:10243800A7689F60E7681034DF6010336545F2D104
:1024480045460F230C2401352D0149191340451920
:10245800144222D08C59AC5104369C1B032CF9D859
:10246800043B9B0801339B00ED18C91803231A404D
:10247800561E002A06D00023CC5C1A00EC54013307
:102488009642F9D180BCB846F0BD0500561E002A18
:10249800F1D1F7E70500561EEDE71A00F6E7C0464A
:1024A800F0B50500830749D0541E002A45D0030023
:1024B8000326CAB202E00135013C3ED301332A703B
:1024C8003342F8D1032C30D9FF220A4015021543B4
:1024D8002A0415430F2C34D92700103F3F093E0129
:1024E800B4461E001A0010366644156055609560A3
:1024F800D5601032B242F8D101373F01DB190F27FE
:102508000C22274022403C00002A0ED03E1FB6086D
:10251800B400A4461A001C1D644420C2A242FCD187
:1025280003240136B6009B193C40002C05D0C9B2E3
:102538001C19197001339C42FBD1F0BD0300140033
:10254800C0E72700E2E7C046164B70B504001D68D7
:102558001F2821D8B7239B00EB58002B0DD08200F1
:102568009B181A68002A08D0012A13D0511C0DD0D4
:10257800002119609047002070BD280000F028F85D
:1025880022000100280000F00FF8F5E716230120CB
:102598002B60F1E70020EFE7162301202B60404273
:1025A800EAE7C0460C000020002370B5074D040080
:1025B800080011002B60FEF717FF431C00D070BD08
:1025C8002B68002BFBD02360F9E7C046C404002029
:1025D80010B5FEF707FF10BD034B10B5002B02D056
:1025E800024800F005F810BD0000000009260008A8
:1025F80010B5010000230022002000F019F810BDDA
:1026080070B5074D074C641BA41005D0013CA3000E
:10261800EB589847002CF9D100F066F870BDC04619
:1026280080280008842800087047C0467047C046C4
:10263800F0B5D6464F464646C0B5264F82B006008E
:102648003868924698468946FFF7EEFF224B1B688A
:102658000193A423019A5B00D558002D2ED06C68F5
:102668001F2C30DC002E0FD1631C6B604B460234EC
:10267800A40038686351FFF7D9FF002002B0E0BC1E
:10268800BA46B146A846F0BD882251462800A300A4
:10269800EB189950873AA2408930FF3001681143FE
:1026A80001608421404649005850022EDCD12B009D
:1026B8008D33FF3319680A431A60D5E715004D3585
:1026C800FF35D550CBE73868FFF7B0FF012040420F
:1026D800D4E7C0463804002044270008F8B5C046AF
:1026E800F8BC08BC9E467047F8B5C046F8BC08BCA4
:0426F8009E46704743
:1026FC0000000000EE14FF000000000000000000CD
:10270C0000000000000000000000000000000000BD
:10271C0000000000000000000100000002000000AA
:10272C000300000004000000060000000700000089
:0C273C0008000000090000001000002050
:1027480074B20181B0AB30800000000080080181C4
:10275800B0B0ABF0000000003F020181B0AB3080A8
:102768000000000080060181B0B0ABF0000000005E
:10277800A0DAFF7F010000004CDBFF7FB0A90280D8
:10278800E0DBFF7FB0B0A88034DCFF7F01000000F1
:1027980040DCFF7FB0B0AA8074DCFF7FA4FFFF7F1E
:1027A8003CDDFF7F0100000038DDFF7FAA3F398054
:1027B80084DDFF7FB0B0A88090DDFF7FB0B0AA8035
:1027C800D0DDFF7FB0B0A880E4DDFF7F010000000E
:1027D800E0DDFF7FB0B0A880E8DDFF7F01000000EA
:1027E80078DEFF7FAA0FB280E0DEFF7F60FFFF7F09
:1027F800C4E1FF7FB0B0A880E0E1FF7F5CFFFF7F0E
:1028080040E4FF7F01000000B0E5FF7F0084048002
:10281800C0E5FF7FB0B0A880C0E5FF7F48FFFF7F1D
:10282800A8E8FF7F00840480C8E8FF7FB0B0A880D4
:10283800E0E8FF7FB0AA078048E9FF7FB0AA0380DD
:10284800A8E9FF7F00843280C8E9FF7F010000000B
:10285800C4E9FF7FB0B0A8800CEAFF7F0084128033
:1028680080EAFF7FB0A90280E0EAFF7F0100000054
:08287800E1250008E100000861
:04288000B900000893
:102884000024F400010000000400000010000020F7
:1028940000000000FC02002064030020CC030020A0
:1028A4000000000000000000000000000000000024
:1028B4000000000000000000000000000000000014
:1028C4000000000000000000000000000000000004
:1028D40000000000000000000000000000000000F4
:1028E40000000000000000000000000000000000E4
:1028F40000000000000000000000000000000000D4
:1029040000000000000000000000000000000000C3
:1029140000000000000000000000000000000000B3
:1029240000000000000000000000000000000000A3
:102934000000000000000000010000000000000092
:102944000E33CDAB34126DE6ECDE05000B00000057
:102954000000000000000000000000000000000073
:102964000000000000000000000000000000000063
:102974000000000000000000000000000000000053
:102984000000000000000000000000000000000043
:0C2CB4000000000000000000C004002030
:0400000508001411CA
:00000001FF
